:020000040000fa
:080000000002040000000000f2
:020000040000fa
:0400080024040000cc
:020000040000fa
:04000c0024040000c8
:020000040000fa
:0400100024040000c4
:020000040000fa
:0400140024040000c0
:020000040000fa
:0400180024040000bc
:020000040000fa
:04001c0024040000b8
:020000040000fa
:0400200024040000b4
:020000040000fa
:0400240024040000b0
:020000040000fa
:0400280024040000ac
:020000040000fa
:04002c0024040000a8
:020000040000fa
:0400300024040000a4
:020000040000fa
:0400340002030000c3
:020000040000fa
:04003800240400009c
:020000040000fa
:04003c002404000098
:020000040000fa
:040040002404000094
:020000040000fa
:040044002404000090
:020000040000fa
:04004800fa020000b8
:020000040000fa
:04004c002404000088
:020000040000fa
:040050002404000084
:020000040000fa
:040054002404000080
:020000040000fa
:04005800240400007c
:020000040000fa
:04005c00000400009c
:020000040000fa
:040060002404000074
:020000040000fa
:040064002404000070
:020000040000fa
:04006800240400006c
:020000040000fa
:04006c002404000068
:020000040000fa
:040070002404000064
:020000040000fa
:040074002404000060
:020000040000fa
:04007800240400005c
:020000040000fa
:04007c002404000058
:020000040000fa
:040080002404000054
:020000040000fa
:040084002404000050
:020000040000fa
:04008800240400004c
:020000040000fa
:04008c002404000048
:020000040000fa
:040090002404000044
:020000040000fa
:04009400d60300008f
:020000040000fa
:04009800240400003c
:020000040000fa
:04009c002404000038
:020000040000fa
:0400a0002404000034
:020000040000fa
:0400a4002404000030
:020000040000fa
:0400a800240400002c
:020000040000fa
:0400ac002404000028
:020000040000fa
:0400b0002404000024
:020000040000fa
:0400b4002404000020
:020000040000fa
:0400b800240400001c
:020000040000fa
:0400bc002404000018
:020000040000fa
:0400c0002404000014
:020000040000fa
:0400c4002404000010
:020000040000fa
:0400c800240400000c
:020000040000fa
:0400cc002404000008
:020000040000fa
:0400d0002404000004
:020000040000fa
:0400d4002404000000
:020000040000fa
:0400d80024040000fc
:020000040000fa
:0400dc0024040000f8
:020000040000fa
:0400e00024040000f4
:020000040000fa
:0400e40024040000f0
:020000040000fa
:0400e80024040000ec
:020000040000fa
:0400ec0024040000e8
:020000040000fa
:0400f00024040000e4
:020000040000fa
:0400f40024040000e0
:020000040000fa
:0400f80024040000dc
:020000040000fa
:0400fc0024040000d8
:020000040000fa
:0401000024040000d3
:020000040000fa
:0401040024040000cf
:020000040000fa
:0401080024040000cb
:020000040000fa
:04010c0024040000c7
:020000040000fa
:0401100024040000c3
:020000040000fa
:0401140024040000bf
:020000040000fa
:0401180024040000bb
:020000040000fa
:04011c0024040000b7
:020000040000fa
:0401200024040000b3
:020000040000fa
:0401240024040000af
:020000040000fa
:0401280024040000ab
:020000040000fa
:04012c0024040000a7
:020000040000fa
:0401300024040000a3
:020000040000fa
:04013400240400009f
:020000040000fa
:04013800240400009b
:020000040000fa
:04013c002404000097
:020000040000fa
:040140002404000093
:020000040000fa
:04014400240400008f
:020000040000fa
:04014800240400008b
:020000040000fa
:04014c002404000087
:020000040000fa
:040150002404000083
:020000040000fa
:04015400240400007f
:020000040000fa
:04015800240400007b
:020000040000fa
:04015c002404000077
:020000040000fa
:040160002404000073
:020000040000fa
:04016400240400006f
:020000040000fa
:04016800240400006b
:020000040000fa
:04016c002404000067
:020000040000fa
:040170002404000063
:020000040000fa
:04017400240400005f
:020000040000fa
:04017800240400005b
:020000040000fa
:04017c002404000057
:020000040000fa
:040180002404000053
:020000040000fa
:04018400240400004f
:020000040000fa
:04018800240400004b
:020000040000fa
:04018c002404000047
:020000040000fa
:040190002404000043
:020000040000fa
:04019400240400003f
:020000040000fa
:04019800240400003b
:020000040000fa
:04019c002404000037
:020000040000fa
:0401a0002404000033
:020000040000fa
:0401a400240400002f
:020000040000fa
:0401a800240400002b
:020000040000fa
:0401ac002404000027
:020000040000fa
:0401b0002404000023
:020000040000fa
:0401b400240400001f
:020000040000fa
:0401b800240400001b
:020000040000fa
:0401bc002404000017
:020000040000fa
:0401c0002404000013
:020000040000fa
:0401c400240400000f
:020000040000fa
:0401c800240400000b
:020000040000fa
:0401cc002404000007
:020000040000fa
:0401d0002404000003
:020000040000fa
:0401d40024040000ff
:020000040000fa
:0401d80024040000fb
:020000040000fa
:0401dc0024040000f7
:020000040000fa
:0401e00024040000f3
:020000040000fa
:0401e40024040000ef
:020000040000fa
:0401e80024040000eb
:020000040000fa
:0401ec0024040000e7
:020000040000fa
:0401f00024040000e3
:020000040000fa
:0401f40024040000df
:020000040000fa
:0401f80024040000db
:020000040000fa
:0401fc0024040000d7
:020000040000fa
:0402000024040000d2
:020000040000fa
:0402040024040000ce
:020000040000fa
:0402080024040000ca
:020000040000fa
:04020c0024040000c6
:020000040000fa
:0402100024040000c2
:020000040000fa
:0402140024040000be
:020000040000fa
:0402180024040000ba
:020000040000fa
:04021c0024040000b6
:020000040000fa
:0402200024040000b2
:020000040000fa
:0402240024040000ae
:020000040000fa
:0402280024040000aa
:020000040000fa
:04022c0024040000a6
:020000040000fa
:0402300024040000a2
:020000040000fa
:04023400240400009e
:020000040000fa
:04023800240400009a
:020000040000fa
:04023c002404000096
:020000040000fa
:040240002404000092
:020000040000fa
:04024400240400008e
:020000040000fa
:04024800240400008a
:020000040000fa
:04024c002404000086
:020000040000fa
:040250002404000082
:020000040000fa
:04025400240400007e
:020000040000fa
:04025800240400007a
:020000040000fa
:04025c002404000076
:020000040000fa
:040260002404000072
:020000040000fa
:04026400240400006e
:020000040000fa
:04026800240400006a
:020000040000fa
:04026c002404000066
:020000040000fa
:040270002404000062
:020000040000fa
:04027400240400005e
:020000040000fa
:04027800240400005a
:020000040000fa
:04027c002404000056
:020000040000fa
:040280002404000052
:020000040000fa
:100400004f0421000eff2c000e01880000000000a8
:10041000000020000000e000020032000001200087
:100420002002880014000700090107000000e00016
:1004300003003a00e016210001002000020037000e
:100440000000200001002000810f70000100320038
:100450000f000700000020000000e0000200320052
:1004600000000200000000006a0a02000000000014
:100470000040da000000fe00200020000000e00044
:1004800002003200100020009001880000000600e9
:10049000a1028800800478000000eb001f003700f4
:1004a000e284440054a0b4009905ba00e2844400f8
:1004b00054a0b4009906ba00e284440054a0b400e9
:1004c0000006eb00476fde00fd07b200ae018800ba
:1004d000636ce10003003a000ad801000000eb0061
:1004e0000e003700606ce10008003a00004deb00a0
:1004f0000a05e800020039003420ec000af0a000f0
:100500008b05e900f9ff3e00040037006168e10057
:10051000010032000086eb000b00070019c7ba008b
:100520000e04e0001905ba0003003a000a00e000da
:10053000dbff3a0000000600fe07b200ae028800b2
:100540008a047800f5ff37000cd0a300e20f4d00bd
:100550001c00390089027800354dba000a05e80010
:10056000020039003420ec000af0a0008b05e900fd
:100570000f003200254dba000a05e80002003900dc
:100580003420ec000af0a0008b05e90008003200de
:100590000c00e0000600320015cdba000a05e800a4
:1005a000020039003420ec000af0a0008b05e900bd
:1005b0008984e80054a0b4000b00e000e2ff3a0098
:1005c000000006009902ba00055d78008b05e9007d
:1005d000f7ff3200c82ade00055d78008b05e900d0
:1005e000f3ff32000c00e000f1ff320019ddba0029
:1005f000eeff37000000fa000108a9000080fa00b1
:10060000004006003600f800809fbe00829fbe00ba
:10061000849fbe00869fbe00881f78000200fa00fb
:100620000068a90072050700f1060700308180000c
:100630004181800018c0b300020020000320240084
:10064000260107000000e00001003c000044eb0030
:100650000804e0004d00320050818000618180007c
:1006600018c0b30002002000032024001b01070073
:100670000000e00001003c000044eb000804e00042
:1006800042003200708180008181800018c0b30078
:100690000200200003202400100107000000e000f9
:1006a00001003c000044eb000804e0003700320089
:1006b00090818000a181800018c0b300020020005a
:1006c00003202400050107000000e00001003c00b9
:1006d0000044eb000804e0002c003200b0818000f0
:1006e000c181800018c0b300020020000320240054
:1006f000fa0007000000e00001003c000044eb00ad
:100700000804e0002100320030002000000f7800d3
:10071000708080000000e00003003a00254ea80031
:1007200064cea90064eea900708080009e0f500086
:1007300003003a00254ea90064cea90064eea8008b
:100740001e0078000000400080007800708080006b
:10075000808f500003003a00254ea90064cea80007
:1007600064eea900708080000000e80070808800be
:100770001e007800e300b9008000780070808000df
:10078000808f500001003d000e30ef000080fa0025
:100790004f0478004f03be004f02be004f01be0061
:1007a0004f00be003600f900004006003600f80099
:1007b000809fbe00829fbe00849fbe00869fbe00b9
:1007c0000000fa000368a90040808000518080008a
:1007d00061004000e080480040808800518088002f
:1007e000e20107000080fa004f03be004f02be0086
:1007f0004f01be004f00be003600f9000040060069
:10080000801f78000000fa0001a8a90000188000ed
:10081000d081880010188000e081880020188000b6
:10082000f081880030188000008288004018800025
:100830001082880010c0b30013f0b7000080fa00e7
:100840004f007800004006000040da000000fe0083
:100850000000050003f0a200889fbe008a9fbe0032
:100860008c1f78001b010700220133006450e10057
:100870004f0032006420e1005200320003826c001d
:1008800007003b000905d0000306d000820f54008a
:100890000c065d0002003900020032008901780078
:1008a000030678008582550004003d000003fd002a
:1008b0008103fd008502ea008b854200840f7200ef
:1008c00002003b0060001000e08018006011b800da
:1008d0000005eb007a28e1000a00390006007800e4
:1008e000c75ddd00f707b200878075002d00370077
:1008f000828171000a017800610560008180d10069
:100900000080d3008502e900f9ff3b0006044000a7
:100910008784480002003b0060041400e0841c004f
:100920000988a300070032008a817100828171006a
:10093000610164008904d1000884d3008b05e800bc
:10094000170037000978a30013003a000b00e000fd
:10095000130034008b05e9000804440089844c002e
:100960000a4474000978a3000d003a000b00e0006f
:10097000070034008b05e9000804440089844c001a
:1009800001003a000b0020000978a300f7ff3200b5
:100990000001eb0002003700828171000a0178003b
:1009a000910007000cf0a70001f0a000da0037006a
:1009b0006420e10002003a00838f6c00da0033000b
:1009c0000801be000200be00d3003700889fbe00b1
:1009d0008a9fbe008c1f7800be000700c500330050
:1009e00003866c006450e1002e0032006420e100b8
:1009f000330032006150e1002f0032006120e1003d
:100a00003100320085855500eb07b0000900200059
:100a100008042000050037000804440089844c00c5
:100a20000a0031000603430087834b000001530096
:100a300081815b00f8ff33000203be000800a000c4
:100a40000804440089844c00f6ff3900c639dd00f3
:100a50008301730001003200130020008904d100db
:100a60000884d3000998a300050032000800a700fd
:100a70000300a0008904d1000884d3008b05e8009e
:100a80008904d1000884d3000001eb000281d20068
:100a90005500070001f0a1000cf0a70001f0a00034
:100aa0009d0037006420e1009f0032000801be0075
:100ab0000200be00f7ff37006120e1009a0032001b
:100ac0006000b800f3ff37000000200001f82700a5
:100ad000f0ff370014002000ca003700f4ff2f0099
:100ae000c80037000001be00650007000470a700c1
:100af00003f0a1006509b100160032000d003500b9
:100b00006828e10006003500f0ff2f00f1ff270004
:100b10000300e00013003b00010028000000050076
:100b200000004000818048008502e900fcff3a0097
:100b300008003700f88f420002003c008000eb0004
:100b4000000005008100d1000080d3008502e8008c
:100b5000fcff3a000300e00002003b0060001000d0
:100b6000e0801800000006000001be0044000700fd
:100b70000470a70003f0a10003f8a30013003a00db
:100b80006509b10010003200090035006928e10054
:100b900002003500010028000000050000004000b0
:100ba000818048008502e900fcff3a000000060051
:100bb000f88f4200050035008100d1000080d3008d
:100bc0008502e800fcff3a00000006008000eb0010
:100bd000000005004f89de0082017800a400370084
:100be0006011b800b200370081002000618055001c
:100bf0000b003d000b00200061fe2f000100e10012
:100c00001d00340082817100610164008904d100fb
:100c10000884d3000000e800faff3a0071002000c9
:100c200061006400030070000200600009003200ef
:100c300061044400e0844c000988a50005003200ee
:100c40008b05e8006808e10002003a008904d10041
:100c50000884d300f20f20000258e10005003d0097
:100c6000c75ddd00f907b2008980750008007800d3
:100c7000000006000bf827008b007800000005003c
:100c8000c70ade00f107b200f50fb200080032001b
:100c9000e1cf4200020032000170a00024000500f4
:100ca000810f7000010032000408050044000500b7
:100cb000810f700002003a00140005008502e9006f
:100cc0000000400081c04800fcff3b000170a00014
:100cd000240005000004be00e9ff07000003be0079
:100ce0000405be000200be00e5ff0700844f75004a
:100cf000000006000200be006450e100050036005e
:100d00006420e100020036000968a30001003a00f7
:100d10000800be000160a0004f0678004f05be002d
:100d20004f04be0000000600f0ff2f00f1ff270077
:100d3000f9ff3700889fbe008a9fbe008c1f780095
:100d4000e4ff0700ebff330003866c006450e10012
:100d5000240032006420e100270032006150e100ed
:100d6000220032006120e100210032008b85420028
:100d7000eb07b1000134b800003ab80008044200a3
:100d800089844a00013ab8000030b80088804000e9
:100d900009014a000400330000004000818048003f
:100da000020149008b05e900c909dd0083017000db
:100db0000100320013002000c814de004814dd00da
:100dc0004709de001200b200c808de000884700087
:100dd00085ff070001f0a1000cf0a70001f0a000c2
:100de000cdff37006120e100cfff32000801be00d7
:100df0000200be00f7ff37006150e100fcff3a003f
:100e0000c9ff3700889fbe008a9fbe00841f7800fc
:100e1000b0ff07004f00780011003300f0ff2f00f3
:100e2000838f6c0006003b00040565000a00a700e4
:100e30000800370009f0a600100020000800370065
:100e4000820f5400838f5c000300390010002000e3
:100e500001003e000000200009f0a7000000ea00a9
:100e60004f05be004f04be000000e0000000060079
:100e7000881f7800030478000300e00007003d00ad
:100e800060001000e080180060011900e081190086
:100e900002003b0001f02d000300370004000700b2
:100ea00008f0a70001f0a0004f0478000000060041
:100eb000889fbe008a9fbe000082700004027100fd
:100ec00004827100260032000004be000200be0051
:100ed0006011b8006b092000950220000182cf004c
:100ee0000a0039000541b1000082cf000700390037
:100ef0000541b1000982cf00040039000541b1006d
:100f00000882cf00010039000541b10005425200be
:100f1000120032000a003b0082817100610164000e
:100f20008100d1000080d3008984d3000884d300dd
:100f30008b05e8000442e800f7ff3a00070037009d
:100f40000804440089844c00000048008180480067
:100f50008b05e9000442e900f9ff3a0022ff07008f
:0c0f60004f05be004f04be00000006005c
:020000040000fa
:100f6c000000fa0006d0bf000080fb00cf80de003e
:100f7c00f200200003002000820f5000838f5800e5
:100f8c007e003e00000601000f00370018003700fd
:100f9c00210037002b0037002c00370035003700bc
:100fac003600370040003700410037004a00370058
:100fbc004b003700550037005600370060003700f3
:100fcc00610037006b0037000830ef000a30ef008b
:100fdc000041eb006000b800ad03070012c0b30085
:100fec006000b800aa03070010c0b30006f0b700f9
:100ffc004280800053808000803e20000100200051
:10100c00800f5100818f59005f00360020c0b30063
:10101c0006f0b7005d0037000041eb000000200037
:10102c00012224009a03070012c0b3000000200024
:10103c00012224009603070030c0b30006f0b7006d
:10104c005200370053000700500037000041eb00fe
:10105c0000002000811c24008d03070012c0b30087
:10106c006000b8008a03070050c0b30006f0b70058
:10107c004600370047000700440037000041eb00f2
:10108c0000002000811c24008103070012c0b30063
:10109c0000002000011224007d03070070c0b30083
:1010ac0006f0b700390037003a0007003700370068
:1010bc000041eb006000b8007503070012c0b300dc
:1010cc0000002000811c24007103070090c0b300b5
:1010dc0006f0b7002d0037002e0007002b0037005c
:1010ec000041eb00000020000112240068030700ff
:1010fc0012c0b30000002000811c24006403070010
:10110c00b0c0b30006f0b700200037002100070084
:10111c001e0037000041eb0000002000011a2400e3
:10112c005b03070012c0b30000002000011a2c0062
:10113c0057030700d0c0b30006f0b7001300370008
:10114c0014000700110037000041eb0000002000e4
:10115c00011a2c004e03070012c0b300000020003f
:10116c00011a24004a030700f0c0b30006f0b700d0
:10117c000600370007000700040037000670ef0078
:10118c000000000001003700000000000080fa00a1
:10119c00000006000a00fa00881f780010002000ea
:1011ac00000f78001000200010079800100020009d
:1011bc002007980010002000300798001000200035
:1011cc0040079800b0818000c181800018c0b30036
:1011dc0002002000031924003bfe07000000e00081
:1011ec00010035000044eb000804e000040032006c
:1011fc000000eb00000f7800254ea800030037001c
:10120c0010002000000f7800254ea90030818000ce
:10121c004181800018c0b30002002000031e24008e
:10122c0029fe07000000e000010035000044eb003f
:10123c000804e000030032000000eb0010079800e7
:10124c000200370010002000100798005081800029
:10125c006181800018c0b30002002000031f24002d
:10126c0019fe07000000e000010035000044eb000f
:10127c000804e000040032000000eb002007980096
:10128c0064eea8000300370010002000200798002f
:10129c0064eea900708180008181800018c0b300c9
:1012ac0002002000031e240007fe07000000e000df
:1012bc00010035000044eb000804e000030032009c
:1012cc000000eb00300798000200370010002000ef
:1012dc003007980090818000a181800018c0b30075
:1012ec000200200003192400f7fd07000000e000b5
:1012fc00010035000044eb000804e000040032005b
:10130c000000eb004007980064cea80003003700f3
:10131c00100020004007980064cea9002e00900019
:10132c000000e0000f0032001e0090000000e00002
:10133c0003003a003e0090000000e000090032007b
:10134c001e0078000000e00009003a004e009000fa
:10135c000000e00006003a001e0090000000e000d3
:10136c0003003a00c0c0b30007f0b7004a003700d2
:10137c001e0078000000e00009003a004e009000ca
:10138c000000e00006003a003e0090000000e00083
:10139c0003003a00e0c0b30007f0b7003e0037008e
:1013ac003e009000e10f500009003a002e00900022
:1013bc00e10f500006003a001e0090000000e00013
:1013cc0003003a0040c0b30007f0b700320037000a
:1013dc003e0090000000e00009003a002e00900052
:1013ec00e10f500006003a001e009000e10f500083
:1013fc0003003a0080c0b30007f0b70026003700a6
:10140c004e009000e10f50000f003a003e0090009b
:10141c00e10f50000c003a002e009000e10f50003c
:10142c0009003a001e009000e10f500006003a003f
:10143c001e0078000000e00003003a0060c0b3001a
:10144c0007f0b700140037004e0090000000e000d9
:10145c000f003a003e009000e10f50000c003a00e3
:10146c002e009000e10f500009003a001e00900081
:10147c00e10f500006003a001e007800e10f50000a
:10148c0003003a00a0c0b30007f0b7000200370019
:10149c0020c0b30007f0b70007d0bf008080fb006e
:1014ac0006d0bf000080fb000000e900808f5000d8
:1014bc000200320007d0bf0006f0b7004f047800de
:1014cc000080fa00000006000600fa005503070031
:1014dc009303070064cea90064eea900254ea90071
:1014ec00a4010700a50007008b00070022010700dc
:1014fc000203070001003700000000004103070051
:10150c00e14f5000fcff3a0042030700390307008b
:10151c00000f78009e007800688040001000780072
:10152c008000eb00abfd07003233230033052400b1
:10153c00fdfd0700020020000358240020fd0700d9
:10154c00d2cc2c00c3042400f7fd07001007980030
:10155c00210798001e019000ae01900000002000b1
:10156c008120240016fd070002002000030a24003d
:10157c00b5fc070070818800818188009e0078008e
:10158c0064804000100078008000eb0091fd0700a3
:10159c003233230033052400e3fd07000200200052
:1015ac000358240006fd0700d2cc2c00c3042400f1
:1015bc00ddfd070010079800210798001e01900020
:1015cc00ae0190000000200081202400fcfc0700ec
:1015dc0002002000030a24009bfc070050818800b5
:1015ec00618188001e80e800100078008000eb000c
:1015fc0078fd07003233230033052400cafd0700b1
:10160c000200200003582400edfc0700d2cc2c0073
:10161c00c3042400c4fd070010079800210798009c
:10162c001e019000ae0190000000200081202400db
:10163c00e3fc070002002000030a240082fc0700e0
:10164c0030818800418188009e00780066804000cf
:10165c00100078008000eb005efd070032332300a1
:10166c0033052400b0fd07000200200003582400bd
:10167c00d3fc0700d2cc2c00c3042400aafd070025
:10168c0010079800210798001e019000ae019000f1
:10169c000000200081202400c9fc0700020020006b
:1016ac00030a240068fc070090818800a18188004f
:1016bc001e007800100078008000eb0045fd07004c
:1016cc00323323003305240097fd0700020020006d
:1016dc0003582400bafc0700d2cc2c00c30424000d
:1016ec0091fd070010079800210798001e0190003b
:1016fc00ae0190000000200081202400b0fc070007
:10170c0002002000030a24004ffc0700b08188006f
:10171c00c181880079ff37000000fa0013e1a900ad
:10172c0011e1a9001061a8001021a9008108800016
:10173c00f0fc2f0000806000800888000a21ef0078
:10174c000621ef00404c20007008880000402b0060
:10175c00600888002142800080ff2f00008060001c
:10176c000000a000204288000108a9002108a80060
:10177c0011e1a8000080fa00000006000000fa0049
:10178c0005e1a90000002000a13724000600070095
:10179c000421a9000068a9002068a80005e1a800a0
:1017ac000080fa00000006000400fa00881f780090
:1017bc00008fbe0021088000f0fc2f00008060002c
:1017cc00200888001e0178009e0190000068290006
:1017dc0081c124007afc070018c0b30002f02f006e
:1017ec00f3772400bafc07000000e00001003c0085
:1017fc000044eb000804e000540032002108800093
:10180c00f0fc2f00008060000040a0002008880041
:10181c001e0178009e0190000068290081c12400ff
:10182c0067fc0700020020000310240064fc070082
:10183c0018c0b30002f02f00f3772400a4fc0700bb
:10184c000000e00001003c000044eb000804e00054
:10185c003200320021088000f0fc2f000080600074
:10186c000050a000200888001e0178009e01900006
:10187c000068290081c1240051fc070002002000ef
:10188c00032824004efc070018c0b30002f02f0000
:10189c00f37724008efc07000000e00001003c0000
:1018ac000044eb000804e000100032002108800026
:1018bc000003200001007000200888001e01780041
:1018cc009e0190000068290081c124003cfc0700a7
:1018dc00020020000338240039fc07007efc0700be
:1018ec000000780010088800200037001e017800e6
:1018fc009e0190000068290081c1240030fc070083
:10190c0002002000032824002dfc070072fc0700b5
:10191c000000780010088800140037001e017800c1
:10192c009e0190000068290081c1240024fc07005e
:10193c00020020000310240021fc070066fc0700b5
:10194c000000780010088800080037001e0178009d
:10195c009e0190000068290081c1240018fc07003a
:10196c005dfc070000007800100888004f04780028
:10197c000080fa00000006000000fa001fe1a90038
:10198c0000002000a1472400060007001e21a9002a
:10199c000368a9002368a8001fe1a8000080fa00d2
:1019ac00000006000400fa00881f7800008fbe00bb
:1019bc00f1088000f0fc2f0000806000f008880027
:1019cc001e0178009e0190000068290081c124004e
:1019dc00fbfb070018c0b30002f02f00f3772400c4
:1019ec003bfc07000000e00001003c000044eb0061
:1019fc000804e00054003200f1088000f0fc2f00d5
:101a0c00008060000040a000f00888001e017800f3
:101a1c009e0190000068290081c12400e8fb0700aa
:101a2c000200200003102400e5fb070018c0b300df
:101a3c0002f02f00f377240025fc07000000e000e3
:101a4c0001003c000044eb000804e00032003200ce
:101a5c00f1088000f0fc2f00008060000050a00016
:101a6c00f00888001e0178009e0190000068290093
:101a7c0081c12400d2fb07000200200003282400af
:101a8c00cffb070018c0b30002f02f00f37724003f
:101a9c000ffc07000000e00001003c000044eb00dc
:101aac000804e00010003200f10880000003200060
:101abc0001007000f00888001e0178009e01900063
:101acc000068290081c12400bdfb07000200200032
:101adc0003382400bafb0700fffb07000000780066
:101aec00d0088800200037001e0178009e0190006d
:101afc000068290081c12400b1fb0700020020000e
:101b0c0003282400aefb0700f3fb0700000078005d
:101b1c00d0088800140037001e0178009e01900048
:101b2c000068290081c12400a5fb070002002000e9
:101b3c0003102400a2fb0700e7fb0700000078005d
:101b4c00d0088800080037001e0178009e01900024
:101b5c000068290081c1240099fb0700defb070007
:101b6c0000007800d00888004f0478000080fa004c
:101b7c00000006000000fa001160800080ff2f00ba
:101b8c00008060001060880000fa2000206088004f
:101b9c0023aca800238ca80011618000f03f2f001b
:101bac000080600000a0a0001061880030002000c0
:101bbc0020618800c3aca800c38ca800116680000b
:101bcc00f03f2f000080600000a0a000106688008d
:101bdc00300020002066880001eca8000080fa008c
:101bec00000006000000fa00889fbe008a9fbe001d
:101bfc001481800025818000f080800001818000ac
:101c0c0018c0b3000001be000400be00aefb07000c
:101c1c000000e000010035000044eb000804e00087
:101c2c000f003200f8808000098180001a8180004a
:101c3c002b81800010d0bf000080fb00cf80de0025
:101c4c00e1fb07000001be000a00be00fffa07001e
:101c5c000801be00d0000700108188002181880097
:101c6c001481800025818000f0808000018180003b
:101c7c0018c0b3000001be000400be0094fb0700b6
:101c8c000000e00001003c000044eb000804e00010
:101c9c000f003200f8808000098180001a818000da
:101cac002b81800010d0bf000080fb00cf80de00b5
:101cbc00c5fb07000001be000a00be00e2fa0700e7
:101ccc000801be009c00070010818800218188005b
:101cdc00108180002181800018c0b3006011b80011
:101cec007bfb07000000e00001003c000044eb001f
:101cfc000804e00004003200c3cca90024eea800c4
:101d0c00c3eca80003003700c3eca90024cea80044
:101d1c00c3cca800108180002181800070000700d6
:101d2c000200200003222400fffb07008bfb0700ae
:101d3c000000780030668800d4808000e580800048
:101d4c00b0808000c180800018c0b3000001be00cc
:101d5c000400be005cfb07000000e0000100350041
:101d6c000044eb000804e0000f003200b880800053
:101d7c00c9808000da808000eb80800010d0bf002a
:101d8c000080fb00cf80de008ffb07000001be004f
:101d9c000a00be00adfa07000801be007e00070075
:101dac00d0808800e1808800d4808000e5808000ad
:101dbc00b0808000c180800018c0b3000001be005c
:101dcc000400be0042fb07000000e00001003c00e4
:101ddc000044eb000804e0000f003200b8808000e3
:101dec00c9808000da808000eb80800010d0bf00ba
:101dfc000080fb00cf80de0073fb07000001be00fb
:101e0c000a00be0090fa07000801be004a00070055
:101e1c00d0808800e1808800d0808000e180800044
:101e2c0018c0b3006011b80029fb07000000e000e7
:101e3c0001003c000044eb000804e0000400320008
:101e4c0023cca90015eea80023eca8000300370052
:101e5c0023eca90015cea80023cca800d0808000cc
:101e6c00e18080001e0007000200200003222400f5
:101e7c00adfb070039fb07000000780030618800db
:101e8c004f05be004f04be000080fa0000000600a3
:101e9c000600fa00008fbe00424798004e409000aa
:101eac000004e00005003a001e0078009e0090003f
:101ebc0001f0a200f0808800018188004e40900063
:101ecc00e14f500004003a001e0178009e01900082
:101edc00b2808800c38088000080fa0000000600f1
:101eec000400fa00881f7800008fbe0018c0b300f1
:101efc006011b8001e0078009e009000f4fa0700f4
:101f0c000000e00001003d000044eb000804e0008c
:101f1c00030032001e0078009e0090000300370082
:101f2c001e0078009e00900001f0a2004f04780083
:101f3c000080fa00000006000800fa00881f7800f4
:101f4c00008fbe00220798003307980018c0b3001a
:101f5c002e019000be0190001e0078009e009000a3
:101f6c00dbfa07000000e00001003c000044eb003d
:101f7c000804e000030032001e0078009e00900070
:101f8c00020037002e009000be0090004f04780035
:101f9c000080fa00000006000800fa00881f780094
:101fac00008fbe00220798003307980018c0b300ba
:101fbc002e019000be0190001e0078009e00900043
:101fcc00c1fa07000000e000010035000044eb00fe
:101fdc000804e000030032001e0078009e00900010
:101fec00020037002e009000be0090004f047800d5
:101ffc000080fa00000006000c00fa00881f780030
:10200c00008fbe0022079800330798004407980001
:10201c005507980018c0b3004e019000de019000e7
:10202c001e0078009e009000a9fa07000000e00056
:10203c0001003c000044eb000804e0000400320006
:10204c004e019000de019000028fbe000e003700a2
:10205c0018c0b3002e019000be0190001e00780045
:10206c009e00900098fa07000000e0000100350087
:10207c000044eb000804e000030032002e01900045
:10208c00be019000028fbe001e0078009e009000e2
:10209c004f0478000080fa00000006000400fa00eb
:1020ac00008fbe00b2fd2000930424001e007800b7
:1020bc009e00900042fa07000200200043332400e7
:1020cc0019fb07000080fa00000006000400fa006b
:1020dc00008fbe00b2fd2000930424001e00780087
:1020ec009e00900010fb07000200200043332400e8
:1020fc0033fa07000080fa00000006000000fa0026
:10210c0021e3a9002143a80001198000f0cf2f0082
:10211c0000806000001988002043a900011980008c
:10212c00000e2000010070000019880011198000b9
:10213c00f0ff210000806000101988002343a800e4
:10214c0011198000f0cf2f0000806000101988005a
:10215c001119800030f82f00008060000040a000b2
:10216c00101988002203a9002223a90025e3a90045
:10217c00f0c0b30024e3b70021198000f00f2e004b
:10218c008080600000f020000100700020198800a1
:10219c003303a9002e0ea8002f6ea8006f2ea800e6
:1021ac001e2ea8004feea80030c3a8003163a80073
:1021bc002e03a80031e3a8003063a8004119800069
:1021cc0000fc2f00008060004019880028e3a90063
:1021dc0001a8a90021a8a80021e3a8000080fa000a
:1021ec00000006000000fa002023a8000080fa007e
:1021fc00000006000000fa00a00321000080fa0095
:10220c00000006000000fa0013d0bf000080fa00a6
:10221c00000006000000fa001370ef000080fa00c6
:10222c00000006000000fa00f0032000303a88009d
:10223c00213a8000f0f32f0000806000203a8800e3
:10224c00213a800000fe2f00008060000000a000fa
:10225c00203a88001200200080072000a1092000ed
:10226c0033742000804978008149780082497800d5
:10227c00103a8000000178000200a00060042000e9
:10228c007105200023742000804978008149780072
:10229c008249780000000000113a800000002700fd
:1022ac008080600000002100808f5000faff3a000f
:1022bc0000000000113a8000000220000080600045
:1022cc000000e000fbff32000080fa000000060076
:020000040000fa
:1022dc000010000008000000800000000810000042
:1022ec000800000080000000141000002600000010
:1022fc0080000000101000000200000082000000ae
:10230c000a0000003a1000000a00000080000000e3
:10231c00121000000200000080000000000000000d
:020000040000fa
:10232c000000fa000e2eef001e2eef002e2eef00f6
:10233c003e2eef004e2eef005e2eef006e2eef00c5
:10234c00214ea90060cea90060eea90011cea90013
:10235c0011eea90020eea90020cea9000080fa0001
:04236c000000060067
:020000040000fa
:02000004000af0
:04afe000cfff00009f
:020000040000fa
:02000004000af0
:04afe400ffff00006b
:020000040000fa
:02000004000af0
:04afe8007fff0000e7
:020000040000fa
:02000004000af0
:04afec005fff000003
:020000040000fa
:02000004000af0
:04aff00038ff000026
:020000040000fa
:02000004000af0
:04aff400ffff00005b
:00000001FF
